:020000040000FA
:10000000E06FFE1FF1110000590A00003D0A0000D8
:100010003D0A00003D0A00003D0A00003D0A0000C4
:10002000000000000000000000000000FD110000C2
:100030003D0A0000000000009D0A000015120000AB
:10004000972800006B290000212900002B280000C0
:1000500000000000000000000000000000000000A0
:100060000000000000000000000000000000000090
:100070000000000000000000000000000000000080
:100080000000000000000000000000000000000070
:10040000FFFFFFFFFFFDFFFFFCFFFFFFFFFFFFFF01
:10041000FCFFFFFFFFFFFFFFFCFFFF00FFFFFF00F0
:10042000FCFF0F20FFFF0F20FCFF7F40FFFF7F40FE
:10043000FCFF0D40FFFF0D40FFFFFFFF40EA0103FF
:100440009B0703D009E008C9121F08C0042AFAD28A
:1004500003E011F8013B00F8013B521EF9D270474E
:10046000D2B201E000F8012B491EFBD270470022F6
:10047000F6E710B513460A4604461946FFF7F0FFA3
:10048000204610BD30B505462A460B4612F8010B32
:1004900013F8014B08B1A042F8D01CB1002802D0DB
:1004A0006D1CF1E7284630BD421C10F8011B0029E5
:1004B000FBD1801A704730B505460020034600E0A6
:1004C0005B1C934205D2EC5CC85C201A01D1002C65
:1004D000F6D130BD30B50B46014600202022012464
:1004E00009E021FA02F59D4205D303FA02F5491B02
:1004F00004FA02F52844151EA2F10102F1DC30BD18
:100500002DE9F05F0546002092469B468846064648
:10051000814640241BE0284641464746224600F0DB
:10052000E8F953465A46C01A914110D3114618466D
:10053000224600F0CFF92D1A67EB01084F462246FC
:100540000120002100F0C6F917EB00094E41201EE2
:10055000A4F10104DFDC484631462A464346BDE8A3
:10056000F09F2DE9FE4F804681EA0300C00F0C4644
:10057000009021F0004123F00045B8EB0200A941B2
:1005800005D24046214690461C460B46024623F0C3
:100590000040104347D0270DC7F30A00C3F30A51A8
:1005A0000290401A019040286BDAC3F3130040F424
:1005B000801B0098924620B10023D2EB030A63EB24
:1005C0000B0B01985946C0F14002504600F082F9E9
:1005D00006460D4650465946019A00F09AF910EB2E
:1005E00008006141002487EA115284EAE7731A4344
:1005F00040D0009A62B3019A012A4FEA075215DCF3
:10060000001B61EB02014FF0004202EA0752CDE904
:100610000042001C41F5801132462B4600F09AF949
:1006200003B0BDE8F08F40462146F9E7001B61EBBF
:100630000201001C41F5801300185B412018A2F54F
:10064000001747EB030140EAD570B6196D4111E080
:100650006D084FEA360645EAC0754FEA0752001B9F
:1006600061EB0201001C41F5801149084FEA30009E
:100670000019514132462B4603B0BDE8F04F00F05F
:100680005AB90098012240000023D0EB020263EB2C
:10069000E073009821464FEAE074B8EB000061EB8C
:1006A0000401E9E783F000435BE781F0004158E78C
:1006B0002DE9FE4F81EA030404F0004421F00041DB
:1006C00000944FF0000B23F0004350EA01045ED089
:1006D00052EA03045BD0C3F30A54C1F30A552C4415
:1006E000A4F2F3340194A0FB0254C1F3130141F4CA
:1006F0008011C3F3130343F4801301FB024400FB96
:10070000034E840A970A44EA815447EA8357A4FBBC
:10071000076802958D0A05FB07854FEA932C04FBB9
:100720000C542705029D4FEA065847EA1637B5EBE9
:1007300008056EEB070C870E920E47EA811742EA16
:100740008312A7FB0201B6EB0B0164EB00042B0D37
:1007500043EA0C335E1844EB1C50DA465146E7FB83
:100760000201C5F313044FEA0B3343EA14534FEA73
:100770000432019C43EA0603A4F10C040294009C99
:10078000CDE900B400F0E6F803B0BDE8F08F00203A
:100790000146F9E72DE9F04D81EA030404F0004B2E
:1007A00021F0004514464FF0000A23F0004150EAC2
:1007B000050220D054EA01021DD0C5F30A570246B3
:1007C000C5F31303C1F31300C1F30A5640F48015B7
:1007D00043F48013A7EB0608101BD64608F2FD3839
:1007E00073EB050002D308F1010801E092185B41A8
:1007F000B8F1000F03DA00200146BDE8F08D0020BB
:100800004FF48011064684460EE0171B73EB050774
:1008100005D3121B63EB050306434CEA010C4908A0
:100820004FEA300092185B4150EA0107EDD152EADD
:10083000030012D082EA040083EA0501084305D0D0
:10084000101BAB4106D20122002306E000224FF02C
:10085000004302E06FF0010253101AEB06004CEB6C
:10086000085110EB0A0041EB0B01BDE8F04D00F020
:1008700062B8C1F30A52C1F3130140F2FF3341F4ED
:1008800080119A4202DA00200146704740F2334359
:100890009A42A2F2334202DC524200F02AB800F03F
:1008A00019B8000030B5041E71F1000404DB4FF0EC
:1008B0000044404264EB0101141E73F1000405DBA7
:1008C0001C464FF00043524263EB0403994208BFB9
:1008D000904230BD202A04DB203A00FA02F10020C9
:1008E00070479140C2F1200320FA03F3194390406E
:1008F0007047202A04DB203A21FA02F000217047D9
:1009000021FA02F3D040C2F1200291400843194677
:100910007047202A06DBCB17203A41FA02F043EA5F
:10092000E07306E041FA02F3D040C2F120029140A8
:1009300008431946704710B5141E73F1000408DA15
:10094000401C41F1000192185B411A4301D120F093
:10095000010010BD2DE9F04D92469B4611B1B1FA50
:1009600081F202E0B0FA80F220329046FFF7B2FF47
:1009700004460F4640EA0A0041EA0B0153465A4634
:10098000084313D0114653EA010019D0C8F14002C0
:100990005046FFF7AEFF05460E46504659464246C2
:1009A000FFF798FF084305D0012004E020463946B0
:1009B000BDE8F08D0020054346EAE0762C4337433E
:1009C0000A986305E40AA0EB08000022FD0A44EA45
:1009D00047540A3002D500200146E9E70105101905
:1009E0006941DDE9084500196941BDE8F04DA2E71C
:1009F00080B540F2AC1044F63801C1F6FE70C0F28A
:100A0000000100F04AFA00B980BD02A006A1092247
:100A100000F092FC4653505F5355434345535320D7
:100A20003D3D2065727200007372632F5541525430
:100A30002F6273705F756172742E630000BE704721
:100A400044F2F870C0F20000416840F29410C1F620
:100A5000FE7000F00AB900002DE9F04146F22018BE
:100A6000C4F20008B8F80000B8F8201040F20C15E5
:100A700001EA0006B7B20024C1F6FE7527FA04F0B9
:100A8000C00704D055F8241009B120468847013426
:100A90000D2CF3D1A8F81060BDE8F0810D4B19685A
:100AA000EFF309821EF0100F08BF22ED108A22E931
:100AB000F04F0A604FF0100080F31188BFF34F8FA2
:100AC000BFF36F8F02F04EFA4FF0000080F31188F1
:100AD00001F068BE5C07FE1FB0B544F22404C4F206
:100AE00004040025C8200121257100F082F825703A
:100AF00020780028FCD1207840F00200207000BF50
:100B000020788007FCD4002004F8020C14F8020CB2
:100B10000028FBD1002004F11C0100BF11F81020B7
:100B200002F07F0201F8102011F91020002AFBD4F6
:100B300001300328F2D1012000F00BF84EF2BB4146
:100B4000C4F20101002201200A70BDE8B04000F0AB
:100B500027B880B50122EFF3108182F3108840F2AC
:100B6000A012C1F6FE7232F810308BB94EF2FE3C84
:100B700044F23463C4F2010CC0F20003BCF800E09C
:100B800033F8103043EA0E0343F42543ACF8003049
:100B900032F81030013322F8103081F3108880BD14
:100BA0000122EFF3108182F3108840F2A012C1F607
:100BB000FE7232F8103023B132F81030013B22F8C7
:100BC000103032F810208AB94EF2FE3CC4F2010C0B
:100BD00044F23462BCF80030C0F2000232F8100077
:100BE00043F4254222EA0000ACF8000081F31088AB
:100BF0007047484340F20801C1F6FE7109684CF69F
:100C0000002348F63812C3F69A33C0F24102B3FB10
:100C1000F1F1904206D24FF47A725043B0FBF1F0FA
:100C2000800807E08900B0FBF1F0904206D24FF453
:100C30007A71484308B100F0F3BC70474FF0FF30C1
:100C400000F0EEBC7047022818BF704740F29410C5
:100C500044F23C61C1F6FE70C0F2000100F005B83C
:100C60000146002200200A60704780B545F25422F8
:100C7000C5F24F020260084601F014FD002080BD5D
:100C800070B586B001A80126049003A814460D464D
:100C9000CDE90121ADF80C6000F0C6FC40F2A810CF
:100CA000EFF3108286F31088C1F6FE70016839B93F
:100CB00040F60351C4F2040100230B7040230B7073
:100CC000036840F600010133036082F31088E203F9
:100CD000C4F204014FEA152201D4EBB20CE001EB9F
:100CE0008216EBB256F8235025F4803546F823508F
:100CF00024F4803546F8235001EB821141F823405B
:100D0000EFF31081012282F31088026812B10268A9
:100D1000013A0260006838B940F60350C4F204009A
:100D2000002202708022027081F31088002006B039
:100D300070BD4FF4FF50042300EAD100C4F2040355
:100D4000C0580023CFF6FF73C9B243EA1040C84031
:100D500000F0010100201160704780B5C8B2012386
:100D600003FA00FE4FF4FF5340F20C0C03EAD103E8
:100D7000C4F2040C53F80C10012A4CEA030C08D1FD
:100D80004FF4803202FA00F021EA000040EA0E023D
:100D900007E04FF4803221EA0E0102FA00F041EA46
:100DA00000020020CCF8002080BD6FF03F0000EA78
:100DB0009100C9B200EB810040F60001C4F20401C9
:100DC0004058C0F34001002011607047C8B20123B1
:100DD00083409BB24FF4803C002A08BF0CFA00F31A
:100DE0004FF4FF50082200EAD101C4F204020020AF
:100DF0008B50704780B5084601F054FC002080BD40
:100E000080B54FF4FF5040F2000C00EAD101C4F26B
:100E1000040C51F80CE003EA020040EA0E0062EA1A
:100E200003020240002041F80C2080BD4FF4FF5027
:100E300000EAD1000421C4F204014058010C002052
:100E40001180704703EA020023EA020240EA0242EC
:100E50004FF4FF500C2300EAD101C4F20403002038
:100E6000CA5070474FF4FF5000EAD1000421C4F289
:100E70000401415800201180704703EA020023EA70
:100E8000020240EA02424FF4FF50082300EAD10177
:100E9000C4F204030020CA5070472DE9F04F8B6B59
:100EA00002465362CB6B9778D36227F003035F1C33
:100EB000087847F2000E9770C4F2040E4F680EEBEC
:100EC000401000F524304FF00008106282F80080D6
:100ED000D161C2F8288017B943F002039370C86A41
:100EE0004EF2001CCEF2000C00F01F054FF001097D
:100EF00009FA05F70CF18005440991F8286045F8D6
:100F0000247046F2003BBFF34F8FC4F2000BBFF3D7
:100F10006F8F5BF8204040F2DC1A24F480344BF8E9
:100F200020405BF8204034010CF540763454C1F683
:100F3000FE7A4AF8202048690C7C00F01F0709FA65
:100F400007F7430945F82370BFF34F8FBFF36F8F47
:100F50005BF8203023F480334BF820305BF82030EE
:100F6000230133544AF82020C8690B7E00F01F0487
:100F700009FA04F4470945F82740BFF34F8FBFF340
:100F80006F8F5BF820401B0124F480344BF8204025
:100F90005BF8204033544AF82020486A91F820300A
:100FA00000F01F0409FA04F4470945F82740BFF38D
:100FB0004F8FBFF36F8F5BF820401B0124F4803408
:100FC0004BF820405BF8204033544AF82020EFF3E0
:100FD000108089F310880B784FF00044DEF8005041
:100FE00024FA03F325EA0303CEF80030DEF80030DC
:100FF00080F31088106A80F80280106A80F80480FC
:10100000106A80F80980106A80F80A80106A80F8F7
:101010000B80106AA0F81A800878092802D8106A94
:101020004023C374106A062303770878092803D87D
:10103000106A4FF478438382C868D1E90173C00015
:1010400040EA03102FB1032F08BF40F04000F22701
:1010500000E0E227136A00251870106A8771086C97
:101060000227037E166A07EA43037373176AD0E9FF
:1010700001363D720768DB0127F00107022FDFB25E
:1010800066F345170AD1136AFF265E7000680228CE
:10109000106A08BF47F01007C77117E0136ADF71C5
:1010A000C068136A87785F7047781E7807F0030777
:1010B00006F0FC0637441F70C7789F74DF7900780C
:1010C00007F0A30700F05C003844D8710020D36912
:1010D000C2E90300C2E90500086C5B6901785BF8AE
:1010E000237003F01F0627F480374BF823705BF85A
:1010F0002370012707FA06F50CF5C0765B09BFF3EC
:101100005F8F46F823504CF82350D369DB6A5BF8B5
:10111000235025F480354BF823505BF8235003F01F
:101120001F0507FA05F55B09BFF35F8F46F82350EB
:101130004CF82350D369DB695BF8235025F48035E4
:101140004BF823505BF8235003F01F0507FA05F511
:101150005B09BFF35F8F46F823504CF82350D369E7
:101160005B6A5BF8235025F480354BF823505BF81D
:10117000235003F01F05AF405B09BFF35F8F46F8B4
:1011800023704CF823701C23176A63F39F01B97016
:10119000416944F65513C5F243330020C2E90131D9
:1011A000BDE8F08F80B5D0F820E09EF802C00CF0CA
:1011B0007B038EF80230837803F00303A2EB030C69
:1011C0000B44026AC0E9033C937843F080039370B8
:1011D000827802F00302022A05D10988006A41F4EC
:1011E0007E41C18102E00978006AC170002080BDA3
:1011F00000F03AF800F0F7FEFEE700001EF0040FE2
:101200000CBFEFF30880EFF30980014908470000A5
:10121000E12B000010B5EFF31184102080F311884A
:1012200002F094FA30B14EF60450CEF200004FF0C6
:101230008051016084F3118810BD4EF22000C4F289
:101240000100817945F6C4320068C1F6FE7252F899
:101250002110C0F3026021FA00F040F20801C1F64B
:10126000FE7108607047000070B54EF6085040F2FD
:101270000004CEF200004FF47001C0F20004C0F888
:101280008010046000200025FFF7DDFC00F00CF961
:1012900001200126FFF7D7FC40F60050C4F2000001
:1012A0004FF425418580018021684FF48052A1F5DB
:1012B000806181602168C16046F22011C4F20001A2
:1012C0000A80868040F2080045F6BC31C1F6FE7007
:1012D000C0F20001FFF7CBF840F2000045F26021B8
:1012E00040F20802C1F6FE70C0F20001C0F2000236
:1012F000FFF7A4F840F23C4440F23C40C0F2000446
:10130000C0F20000001B8510012D07DB264600BF40
:1013100056F8040B20448047013DF9D1FFF78DFFBB
:10132000FFF7DAFB0220FFF78EFC00F065F90020E2
:10133000BDE8704000F05EB900BE00BFFEE70000EF
:10134000B0B582B040F29010C1F6FE70016840F274
:101350000C050131016041F2514044F21863C1F6BD
:10136000FE750A24C0F2000009A1C0F200034FF488
:101370002062CDE9004502F03BF9012804BF02B02C
:10138000B0BD2868002102B0BDE8B04001F04BBA02
:101390006170705F6372656174655F7468726561C6
:1013A00064000000B0B582B000F0AAF90EA01421CC
:1013B000CDE9001010A112A219A30420042500F009
:1013C00067FA41F265400024C0F200001AA14FF410
:1013D00000720023CDE9005402F00AF9002002B0A7
:1013E000BDE8B04001F067BC6170702072756E6E30
:1013F000696E67210D0A0000444542554700000010
:101400007372632F6170705F6372656174655F747E
:1014100068726561645F656E7472792E63000000A6
:101420006170705F6372656174655F746872656135
:10143000645F656E747279006170705F6C65645F83
:101440007468726561645F656E7472790000000093
:1014500010B5044601F0B6F92046BDE81040FFF78C
:10146000A1BF0000FFF7ECFA40F29414C1F6FE743D
:10147000204640F209210022FFF7A8FC204640F256
:101480000A210022FFF7A2FC4FF4FA7001F0E9FBF9
:10149000204640F20A210122FFF798FC4FF4FA702F
:1014A00001F0DFFBEAE700002DE9F0414EF2FE35E6
:1014B000C4F201054CF200144AF2035045F6C43759
:1014C00042F60051C4F2010428804FF0000CC1F62E
:1014D000FE77C0F2311141F2002243F200604EF279
:1014E0002006A4F800C0C0F27A024FF40043C0F214
:1014F0006E1041F6004E87E80E0007F10C01C4F2B1
:101500000106C0F64E6E81E80940B079316857F89F
:101510002000C1F3026140F20808C840C1F6FE781D
:10152000C8F80000092085F815C086F8820095F8F3
:10153000820018B995F88300800756D095F882008C
:1015400050B9012085F88200C8200121FFF751FB26
:1015500095F882000128FBD1002085F8830085F8EA
:101560008200062086F885000020B074307F0007D6
:10157000FCD542F2017030810020B072307F8006CD
:10158000FCD50220207741F22120C2F20110306008
:101590000520B071B079316857F82000C1F30261BD
:1015A000C840C8F8000042F20400C4F20000F12173
:1015B00001700E21BFF35F8F0171F021BFF35F8FC8
:1015C000017001204021307486F8320086F8330023
:1015D00031714FF425412980A08000BFA0880028E8
:1015E000FCD101202080BDE8F0814FF47A70FFF734
:1015F00029FBB6E77047000044F2786146F20032FA
:101600000020C0F20001C4F2000200BF51F82030F7
:101610000BB142F820300130602808BF7047F5E771
:1016200001380028FCD170472DE9F04F81B0044605
:10163000008800285AD044F240084EF2BB4AC4F257
:1016400004080026C4F2010A0FF2A80B4FF00109AA
:10165000002700BF60685BF8272000EBC6004168E8
:1016600091423CD100689AF8001000F0B85009FA95
:1016700007F5B0F1807F05EA010015D150B90120CE
:10168000FFF767FA9AF8000028438AF80000012063
:10169000FFF786FA18F91700002820D418F8170069
:1016A00040F0800015E000BF50B10120FFF751FA73
:1016B0009AF80000A8438AF800000120FFF770FAAA
:1016C00018F91700B0F1FF3F09DC18F8170000F017
:1016D0007F0008F81700C8200121FFF78AFA0137B8
:1016E000032FB7D1208801368642B1D301B0BDE8BF
:1016F000F08F00BF02040000030400000404000097
:1017000080B5FFF775F900F0A0F80020FF2100F088
:101710000FFB0120032100F00BFB0220032100F04E
:1017200007FB0320032100F003FB0420E32100F06A
:10173000FFFA0520FF2100F0FBFABDE8804000F031
:1017400039BB416802290BD0042918BF704700F14A
:10175000080140F2AC10C1F6FE700122FFF722BD75
:1017600040F69800C1F6FE7001210170704700003C
:10177000F0B585B0044688B940F20810C1F6FE7095
:101780000368002B41D044F6C40044F6F221C0F2B5
:101790000000C0F200014FF4F072984740F21005CB
:1017A000C1F6FE7595F8F00040B195F8F20038B139
:1017B00000F0BAFA012085F8F40004E0052421E0E5
:1017C000012085F8F3000026AF1997F8510030B1D9
:1017D00007F1320120461E22FEF76DFE20B12136B0
:1017E000A52EF1D1052401E097F8314095F8F200DB
:1017F00028B100F09BFA002085F8F40002E00020F8
:1018000085F8F300204605B0F0BD44F6D7014FF44B
:10181000F07744F6F22344F6C400C0F20001C0F2AF
:101820000003C0F20000CDE9007144F6DF2144F668
:10183000A722CDE90203C0F20001C0F2000200209D
:10184000049700F025F800BFFEE770B540F21004E1
:10185000C1F6FE7494F8F00008B1002515E000F020
:1018600058FA054688B90120012600F02FFA002514
:101870000520A4F8F35084F8F56004F8310B2046F5
:10188000A521FEF7F4FD84F8BF60284670BD000076
:101890002DE9F04F8DB0064608469B4690460F4610
:1018A000FEF702FE05460020062EADF83000CDE919
:1018B0000A00CDE90800079010D340F20810C1F6E5
:1018C000FE7003688BB344F6121044F68531C0F203
:1018D0000000C0F2000140F23E22984740F2100A98
:1018E000C1F6FE7A9AF8F100002800F0DB819AF840
:1018F0000000B042C0F0D6813846FFF739FFB04251
:10190000C0F0D0810AF101013846FEF7BBFD002886
:1019100000F0C8819AF8F20018A9069128B300F0E7
:1019200003FA01208AF8F40022E044F6D70144F6D5
:10193000853344F6121040F23E27C0F20001C0F297
:101940000003C0F20000CDE9007144F6DF2144F647
:10195000A722CDE90203C0F20001C0F2000200207C
:101960000497FFF795FF00BFFEE701208AF8F30018
:101970009AF8F50040F25C39C1F6FE7990B1CBA23D
:101980000020494600F056FA044644F21C60C0F2BA
:10199000000050F8262009EB0401204600F04AFA26
:1019A000044400E000243046012100F0D9FA58B187
:1019B00044F6A800C0F2000050F8262009EB04010C
:1019C000204600F037FA04443046022100F0C8FAFD
:1019D00000B309EB040120463A4600F02BFA0F2D24
:1019E00004440DD885F00F0107AD28462022FEF7EC
:1019F00037FD09EB040120462A4600F01BFA044497
:101A000044F6C00209EB0401C0F20002204600F0D7
:101A100011FA044430461C2100F0A2FA002858D0E4
:101A200009EB0401A2A2204600F004FA0444304667
:101A3000042100F095FAC0B109EB040500F064F947
:101A400002462046294600F0F5F9044430461821A4
:101A500000F086FA48B144F6C00209EB0401C0F276
:101A60000002204600F0E6F904443046082100F068
:101A700077FAC0B109EB040500F03CF902462046B4
:101A8000294600F0D7F904443046102100F068FAE6
:101A900048B144F6C00209EB0401C0F2000220463E
:101AA00000F0C8F904443046102100F059FA48B15A
:101AB00009EB040500F023F902462046294600F010
:101AC000B9F9044409EB04017AA2204600F0B2F906
:101AD0000444DDE91657B8F1000F0FD0304620213D
:101AE00000F03EFA50B144F6C20209EB0401C0F224
:101AF0000002204600F09EF904441DE0BBF1000FF7
:101B000004D03046402100F02BFA40B9002D00F0FF
:101B100081803046802100F023FA00287AD044F6F4
:101B2000C20209EB0401C0F20002204600F082F973
:101B3000B8F1000F04441AD03046202100F010FA0A
:101B4000A8B109EB04012046424600F073F9BBF14D
:101B5000000F044434D03046402100F001FA78B33D
:101B600009EB040154A2204600F064F90444CDB30B
:101B70003046802100F0F4F9A0B3B8460BAF4FA275
:101B8000384605212B4602F0AFF809EB0401204648
:101B90003A4600F04FF9BBF1000F044432D0304612
:101BA000402100F0DDF94746F8B144F6C00209EBE8
:101BB0000401C0F20002204600F03CF9044414E0A5
:101BC00085B13046802100F0CBF90028D0D044F612
:101BD000C00209EB0401C0F20002204600F02AF91D
:101BE0000444C5E7BBF1000F0DD03046402100F0A2
:101BF000B7F940B109EB040120465A4600F01AF942
:101C0000044400E0474609EB04012DA2204600F001
:101C100011F90444069B09EB0400C4F580613A46BF
:101C200002F07CF80119B1F57F7F4FF47F7438BF63
:101C30000C46B1F5806F4FF47F7288BF1446B0F147
:101C4000FF3F9AF82000D8BF144640B1002009F8A1
:101C500004000AF120014846FEF714FCB0B19AF8DE
:101C6000F50030B109EB040116A2204600F0E2F8BD
:101C7000044444F6E03209EB0401C0F200022046BD
:101C800000F0D8F80119484600F046F89AF8F2003A
:101C900028B100F04BF800208AF8F40002E00020A0
:101CA0008AF8F3000DB0BDE8F08F00BF1B5B0000A9
:101CB0005B0000005D2000003A000000256C64001D
:101CC000290000001B5B306D0000000040F2100294
:101CD000C1F6FE7282F8F20058B192F8F41092F850
:101CE000F30011B908B100F01FB811B108B900F044
:101CF0001DB8704744F6E030C0F20000704744F66B
:101D0000E030C0F20000704744F6E030C0F200005E
:101D10007047002070470000024601A001F0D4BFC8
:101D2000252E2A730000000072B6704762B6704715
:101D3000B0B586B0044606280D4610D340F2081010
:101D4000C1F6FE700368A3B144F6121044F6783170
:101D5000C0F20000C0F200014FF4A072984740F2B8
:101D60001000C1F6FE7000EB8400C0F8D85006B039
:101D7000B0BD44F6D7014FF4A07544F6783344F66D
:101D80001210C0F20001C0F20003C0F20000CDE961
:101D9000005144F6DF2144F6A722CDE90203C0F248
:101DA0000001C0F2000200200495FFF771FD00BFA2
:101DB000FEE7000040F21000C1F6FE7090F8F0104F
:101DC000E1B180B584B0012180F8F1100CA0F621BA
:101DD00044F60B1CCDE9001044F6DF2144F6A7229F
:101DE000C0F2000CC0F20001C0F200020EA30320FA
:101DF000CDF808C0FFF74CFD04B080BD704700BFB0
:101E0000456173794C6F6767657220562573206949
:101E10007320696E697469616C697A652073756392
:101E2000636573732E000000656C6F675F73746188
:101E30007274000070B586B014460D46064679B936
:101E400040F20810C1F6FE7003689BB344F6C5303B
:101E500044F6D531C0F20000C0F200012C229847B0
:101E600084B940F20810C1F6FE700368002B40D020
:101E700044F6B13044F6D531C0F20000C0F20001A2
:101E80002D2298472078214688B10021B1EB962F6A
:101E900021460CD140F2FF32214600BF05F8010B6C
:101EA00011F8010F18B1964206F10106F6D3081B8E
:101EB00006B070BD44F6D7012C2644F6D53344F65F
:101EC000C530C0F20001C0F20003C0F20000CDE94D
:101ED000006144F6DF2144F69132CDE90203C0F2FD
:101EE0000001C0F2000200200496FFF7D1FC00BF01
:101EF000FEE744F6D7012D2644F6D53344F6B1303B
:101F0000C0F20001C0F20003C0F20000CDE90061A0
:101F100044F6DF2144F69132CDE90203C0F200011C
:101F2000C0F2000200200496FFF7B2FCFEE70000BA
:101F300010B582B040F2AC14C1F6FE74019001A954
:101F400020460122FFF72EF9206A00BF01794907D8
:101F5000FCD5019802B010BD7047FFF7FDBF00002F
:101F6000B0B586B0044606280D4610D340F20810DE
:101F7000C1F6FE700368BBB144F6121044F6C121ED
:101F8000C0F20000C0F2000140F2DF22984740F2A8
:101F90001000C1F6FE7000EB8400D0F8D800284095
:101FA00018BF012006B0B0BD44F6D70140F2DF25CE
:101FB00044F6C12344F61210C0F20001C0F200033F
:101FC000C0F20000CDE9005144F6DF2144F6A7221B
:101FD000CDE90203C0F20001C0F200020020049526
:101FE000FFF756FCFEE780B540F29010C1F6FE7098
:101FF0000021016040F24010C1F6FE7040F248122C
:102000000170C1F6FE724FF48070012101F016F8E4
:1020100040F24411C1F6FE71086018B90020002199
:1020200000F001FCFFF78CF900F054FF002080BDA8
:10203000F0B581B00D4645F6BC3140F25C76C1F694
:10204000FE71C1F6FE760F6831680446081D00F087
:10205000D0FC601C16D1ADB145F69430C1F6FE70CF
:102060004168326891608A683368DA6033680433A3
:102070005360326804328A60316848610168013116
:10208000016020E03068E41944600BD340F26870CE
:10209000C1F6FE7000683168043101B0BDE8F0405F
:1020A00000F0D4BC40F26070C1F6FE700068316888
:1020B000043100F0CBFC45F66030C1F6FE700168DB
:1020C0008C4238BF046001B0F0BD00002DE9F0473C
:1020D000044600F0E5FC45F6A000C1F6FE7001687C
:1020E00040F25C7701310160C1F6FE77396845F650
:1020F000883A40F26C76C1F6FE7AC1F6FE7651B1AE
:10210000DAF8000000283ED13868E16AC06A8842E7
:1021100098BF3C6037E03C600068012833D100255F
:10212000701900F084FC1435B5F5967FF8D145F6AA
:102130002C38C1F6FE78404600F079FC45F640396F
:10214000C1F6FE79484600F072FC45F67430C1F6DF
:10215000FE7000F06CFC45F6A830C1F6FE7000F091
:1021600066FC45F69430C1F6FE7000F060FC40F26B
:102170006070C1F6FE70C0F8008040F26870C1F671
:10218000FE70C0F8009045F6AC00C1F6FE70016824
:10219000231D0131016045F6B001C1F6FE71E06A10
:1021A0000A68904288BF086000EB800006EB80015F
:1021B0004A6861619568C4E902256B60936056F8CE
:1021C0002010013146F8201000F090FCDAF80000F1
:1021D00078B13868E16AC06A88420AD24EF6045083
:1021E000CEF200004FF080510160BFF34F8FBFF37C
:1021F0006F8FBDE8F08770B5866B036C0446DBB16A
:10220000154612B3E0681A46FEF718F9E168206C2B
:102210002268091A9142E16003D2A1684042084451
:10222000E060A81EB0FA80F040093146002E18BFC9
:1022300001210840361A15E02068002598B9A068E9
:1022400001F058FBA56005460DE060681A46FEF7F0
:10225000F5F8D4E90101226C10448842606001D392
:10226000206860600025711C2846A16370BD0000D5
:1022700010B5044690F87500022808BF10BD01286B
:1022800003D038B9206B00F057FC2046BDE8104061
:1022900000F052BC45F2C60103A0C0F2000140F6B6
:1022A000D972FFF749F800BF70785443422D3E754C
:1022B00063537461746963616C6C79416C6C6F63B6
:1022C00061746564203D3D202820282075696E7466
:1022D000385F7420292032202900000045F6A4052B
:1022E00040F26C7A4EF6045845F6A83745F6A0063B
:1022F000C1F6FE75C1F6FE7ACEF200084FF08059A5
:10230000C1F6FE77C1F6FE76286890B100F0C8FBF2
:10231000F868C468201D00F06CFB3068013830603C
:1023200028680138286000F0E1FB2046FFF7A0FF95
:10233000EAE7DAF800000228E6D3C8F80090BFF315
:102340004F8FBFF36F8FDFE72DE9F0470A9F82467B
:10235000089C386B984669B107F13403002600BF2A
:102360008D5D9D551DB11D2E06F10106F8D1002190
:1023700087F851100F2C22D200EB8200043820F095
:102380000706DDF82490381DFC627C6500F05AFBDE
:1023900007F1180000F056FB84F00F00396BB861AC
:1023A0003046524643463F617F6200F069F9B9F119
:1023B000000F386018BFC9F80070BDE8F08745F21B
:1023C000C60103A0C0F2000140F29632FEF7B4FF4E
:1023D00075785072696F72697479203C20283135A4
:1023E0002900000080B545F68C32C1F6FE7200BFB0
:1023F000114612688242FBD34B68D0F804C001EB4F
:10240000030E864503D19C440846C1F804C000EB86
:102410000C0393420AD140F26473C1F6FE731B6849
:102420009A4203D0D2E900236344436081420260B0
:1024300018BF086080BD000000BE00BFFEE70000BE
:10244000F0B581B0044600F02BFB94F94560012EF5
:102450000EDB04F1240500BF286848B1284601F0CE
:10246000F9FA08B100F0AAFC70B2013E0128F3DCD1
:10247000FF2684F8456000F039FB00F011FB94F969
:102480004470012F0EDB04F1100500BF286848B12D
:10249000284601F0DFFA08B100F090FC78B2013F65
:1024A0000128F3DC84F8446001B0BDE8F04000F09E
:1024B0001DBB0000F0B581B0044600F04BFD40F2BA
:1024C0006471C1F6FE71086870BB40F69900C1F6F0
:1024D000FE7010F0070200F1070222F00702A0EBE5
:1024E000020303F5A04304BF02464FF4A04345F6A0
:1024F0008C30C1F6FE700027C0E90027D01820F00C
:102500000700A0F108030B6040E90277086845F670
:102510005C319B1AC1F6FE710B6045F65431C1F671
:10252000FE71C2E900030B6004F1080109294AD3D6
:1025300014F0070205D0093A914244D824F007016B
:10254000103101294FF000043EDB45F65436C1F648
:10255000FE763268914237D845F68C32C1F6FE726B
:1025600017687B688B4205D23D681DB16B683A469F
:102570002F46F7E7874226D0146838685B1A112B7C
:10258000106006D3781842072ED143607960FFF7B8
:1025900029FF45F65C3178683268C1F6FE710B6838
:1025A000121A9A42326038BF0A6045F66832C1F6A4
:1025B000FE72136840F0004000210834C7E90010A3
:1025C000581C106000E0002401F0BEFA600702BF52
:1025D000204601B0F0BD44F6544114A0C0F2000101
:1025E0004FF49772FEF7A8FE44F6544102A0C0F2E1
:1025F0000001EE22FEF7A0FE282028202820736983
:102600007A655F7420292070784E6577426C6F631D
:102610006B4C696E6B2029202620282030783030C2
:10262000303720292029203D3D2030002820282037
:10263000282073697A655F7420292070765265744A
:1026400075726E2029202620282073697A655F74B0
:1026500020292028203078303030372029202920A8
:102660003D3D20300000000040F25C70C1F6FE707D
:10267000016819B101688A6D01328A650068704786
:10268000014642F2394022F00102C0F200004FF050
:10269000807C01E905106FF00202A1F1440041E9DC
:1026A0000923704770B50446FEF7BEFF40F2A81C30
:1026B000EFF31080012181F31088C1F6FE7CDCF875
:1026C000001039B940F60351C4F2040100220A7027
:1026D00040220A70DCF800100131CCF8001080F3C1
:1026E0001088208810B340F6000E0021C4F2040EBA
:1026F000606800EBC102526850F83130100ADD0307
:10270000D2B20BD50EEB801555F8226026F4803638
:1027100045F8226023F4803645F822600EEB8010E5
:1027200040F82230208801318142E1D3EFF310815B
:10273000012080F31088DCF8000020B1DCF80000F4
:102740000138CCF80000DCF8000038B940F603503E
:10275000C4F20400002202708022027081F310880B
:1027600070BDB0B584B00446806A40B1D0E900CEF7
:10277000D0E90253CDE900CECDE9025300E068462E
:10278000E369D4F824C01B78E56AC0E90032C0E9E7
:102790000215E047A06A10B19DE82E002EC004B0DB
:1027A000B0BD0000064801680A68B2E8F04F1EF0AC
:1027B000100F08BFB2EC108A82F30988704700003E
:1027C0005C07FE1FB0B540F24414C1F6FE742068E9
:1027D0004FF0FF3100F0E0FD012803D02068002118
:1027E00000F021F840F24010C1F6FE70017801B10E
:1027F000B0BD01210170FFF7B0FB40F29015C1F6AA
:10280000FE7500BF286801382860F1D020680021DB
:102810000022002300F0ECFC0128F3D02068002106
:1028200000F001F8EEE700BE7047B0B5EFF30380AB
:102830006FF35F20A0F1100540F2DC10C1F6FE70CE
:1028400050F825008178036A01F00301022903D1C1
:10285000198A6FF35F2100E059791A79D40602F0E2
:10286000380203D51C7FE40708BF40321C7904F00E
:10287000C7041C71436A0BB1FFF773FF46F20030C7
:10288000C4F2000050F8251021F4803140F82510E2
:1028900050F82500B0BD10B582B0EFF3038040F2D0
:1028A000FC7101EA800046F2C021C4F200014258E6
:1028B00040F2DC1322F48032C1F6FE7342504158DC
:1028C000184450F8404CA07800F00302206A022A15
:1028D00003D1018A6FF35F2100E04179A069019182
:1028E00098B1606901A9FDF7A9FDA0786169A269A5
:1028F00000F003000144101A6161A0610ED1606A0A
:1029000060B120460021012203E0606A30B1204618
:10291000042202B0BDE81040FFF723BF02B010BD93
:1029200010B5EFF303806FF35F20A0F1100440F2C5
:10293000DC10C1F6FE7050F82400016A8A7802F0BB
:102940007B028A70416A19B100210222FFF709FF58
:1029500046F20030C4F2000050F8241021F4803117
:1029600040F8241050F8240010BDEFF3038040F22B
:10297000FC7101EA800046F2C021C4F20001425815
:1029800040F2DC1322F48032C1F6FE73425041580B
:10299000184450F8400CC1694A6B0169C2B9C1B111
:1029A000817801F00302C168022A05D10988026A10
:1029B00041F47E41D18102E00978026AD1708178C8
:1029C000026901F00303D11AC26801611A44C260AE
:1029D00071B9016A8A7802F07B0204328A70416A16
:1029E00000294FF00001C16002D08022FFF7B9BE7C
:1029F00070470169D0E90132D1F804C09A6084457A
:102A0000536008BF4A60002202610868013808600C
:102A10000868704745F6B423C1F6FE73036045F6B7
:102A2000B400C1F6FE7008608020106070474FF05F
:102A3000FF31024642F8081F00214260C0E903222C
:102A400001607047002101617047000080B5D1F836
:102A500000C01CF1010207D000F10802964652683E
:102A600013686345FAD903E0D0F810E0DEF80420DB
:102A70004A609160C1F808E0CEF80410086101686E
:102A80000131016080BDD0F800C0436808619A68D8
:102A9000C1E90132516099600CF101010160704798
:102AA0001021EFF3118081F3118845F69C01C1F6E6
:102AB000FE710A68531C0B605AB940F29C11C1F6B2
:102AC000FE7108604EF60450CEF200000068C005AA
:102AD00000D1704745F26C1045F2B211C0F200000F
:102AE000C0F2000140F2A442FEF726FC45F69C002D
:102AF000C1F6FE70016859B10139016018BF704715
:102B000040F29C10C1F6FE70006880F31188704797
:102B100045F2B21103A0C0F2000140F2AD42FEF74F
:102B20000BFC00BF7578437269746963616C4E6514
:102B30007374696E67000000B0B550B3044650F876
:102B4000040C002826D5A4F10805296871BB20F0E3
:102B5000004044F8040CA0F108012046FDF787FC72
:102B600000F0F8F945F65431C1F6FE7154F8040C42
:102B70000A68104408602846FFF734FC45F66C30BC
:102B8000C1F6FE70016801310160BDE8B04000F09F
:102B9000DBBFB0BD44F6E13044F65441C0F2000062
:102BA000C0F2000140F24112FEF7C6FB44F6544168
:102BB00003A0C0F200014FF4A172FEF7BDFB00BFFD
:102BC00070784C696E6B2D3E70784E6578744672E5
:102BD0006565426C6F636B203D3D20300000000056
:102BE000806910F8020C022808BFFFF7DBBD04283B
:102BF00038BF704745F2B21103A0C0F200014FF494
:102C00007E72FEF799FB00BF75635356434E756D98
:102C1000626572203C3D20330000000040F2080055
:102C2000C1F6FE70006844F6D351C1F26201A0FB08
:102C300001014FF0FF3000EB91110020B0EB116F5C
:102C400018BF70474EF21002CEF2000251604EF6ED
:102C50002351CEF20001F0230B709060072010602A
:102C6000704780B578B145F6A801C1F6FE710A68D3
:102C7000AAB90A6801320A600021FFF7D9F900F009
:102C800063FF00B180BD4EF60450CEF200004FF05D
:102C900080510160BFF34F8FBFF36F8F80BD45F24E
:102CA0009B0045F2C601C0F20000C0F200014FF4E3
:102CB000A462FEF741FB70B50446FFF7F1FE40F257
:102CC0005C76C1F6FE7604B93468251D2846FFF708
:102CD00090FEA06A18B104F11800FFF78AFE45F6CD
:102CE000AC00C1F6FE7001680131016030688442B9
:102CF00011D045F6A000C1F6FE70016801390160EF
:102D000040F26070C1F6FE700168096891B1006818
:102D1000C068006810E045F6A830C1F6FE7029468C
:102D2000FFF7B1FE45F6A400C1F6FE70016801315F
:102D3000016006E04FF0FF3045F66031C1F6FE71EC
:102D40000860FFF7D3FE3068844202D02046FFF7C8
:102D50008FFA45F68830C1F6FE70006810B1306811
:102D6000844200D070BD45F6A800C1F6FE70006830
:102D700058B94EF60450CEF200004FF08051016079
:102D8000BFF34F8FBFF36F8F70BD45F29B0045F2CD
:102D9000C601C0F20000C0F2000140F2B342FEF7EB
:102DA000CBFA45F66431C1F6FE710968016045F65B
:102DB000BC31C1F6FE7109684160704745F6C0300C
:102DC000C1F6FE7001210160704710B570B10C466C
:102DD00040F25C71C1F6FE7109681831FFF736FEEA
:102DE00020460121BDE81040FFF722B945F2481006
:102DF00045F2C601C0F20000C0F2000140F64B42AD
:102E0000FEF79AFA70B528B30446806D002840D0CA
:102E1000626D8A4288BF114601281BD1E06A884250
:102E200018D040F25C72C1F6FE721268A2423CD029
:102E3000A269E162002A02D4C1F10F01A16140F24E
:102E40006C76616900EB8000C1F6FE7606EB8000CF
:102E5000814200D070BD251D2846FFF7CAFD45F60A
:102E6000B001C1F6FE71E06A0A68904288BF08604E
:102E700000EB800006EB80014A6861619368C4E959
:102E800002235D60956056F82010013146F820104D
:102E900070BD45F2251045F2C601C0F20000C0F237
:102EA000000141F2DC02FEF747FA45F2C60103A039
:102EB000C0F2000141F2F702FEF73EFA7078544387
:102EC0004220213D20707843757272656E745443C0
:102ED0004200000010B586B0002405A804A903AA8A
:102EE000CDE90444FFF796FDDDE9032005990023B1
:102EF000CDE9010142F2DD20C0F2000013A10094EF
:102F000000F0A4FB45F65831C1F6FE710860A8B187
:102F100045F66031C1F6FE714FF0FF32012080F3BB
:102F200010880A6045F68831C1F6FE71086045F6E2
:102F3000BC30C1F6FE70046000F062F845F20C206F
:102F4000C0F20000006806B010BD00BF49444C4507
:102F50000000000045F6A800C1F6FE7001680131CE
:102F60000160704745F6A800C1F6FE70006830B1F8
:102F700045F6C030C1F6FE7001210160704745F68C
:102F8000C030C1F6FE70002145F6B00C0160C1F6FC
:102F9000FE7CDCF8001040F26C7301EB8102C1F69C
:102FA000FE7353F8220003EB820228B9B1B152F844
:102FB000140D01390028F9D05068436802F1080067
:102FC0008342536001D1D3685360D86840F25C7289
:102FD000C1F6FE721060CCF80010704745F2C601D1
:102FE00003A0C0F2000140F63342FEF7A5F900BF8E
:102FF0007578546F705072696F726974790000004F
:103000004EF62250CEF20000F0210170FFF706FECE
:103010004EF63470CEF20000016841F0404101608C
:1030200062B6BFF36F8FEFF3148C2CF0040C8CF3AB
:103030001488BFF36F8F02DF00BEFDE7B0B582B02A
:1030400080B10D4681420DD814464FF0000C00218E
:1030500000222346CDF800C000F010F82046A563FA
:1030600002B0B0BD44F63D7044F6DE61C0F200002F
:10307000C0F2000140F24732FEF75EF910B582B0AF
:103080003BB3D0B11C4601B9BAB901B1AAB14823CA
:103090000193019B482B25D1019B012384F84630E5
:1030A000002908BF2246C4E90F0120460121226001
:1030B00000F038F8204602B010BD44F6457044F6E2
:1030C000DE61C0F20000C0F200014FF4D072FEF7E2
:1030D00033F944F6DE610FA0C0F2000140F277122E
:1030E000FEF72AF944F6DE6103A0C0F2000140F2C7
:1030F0008912FEF721F900BF7853697A65203D3DBA
:103100002073697A656F66282051756575655F74EF
:103110002029000070785374617469635175657576
:103120006500000070B5002844D00446C06BC0B3F1
:103130000E46216CA0FB010199BBFFF7B1FC206892
:10314000D4E90F12002502FB0103013901FB020142
:10315000A563C4E90103FF20E16084F8440084F81A
:10316000450004F110004EB1FFF761FC04F12400AA
:10317000FFF75DFCFFF7BAFC012070BD0168002974
:10318000F8D000F067FC0028F4D04EF60450CEF2E0
:1031900000004FF080510160BFF34F8FBFF36F8F7E
:1031A000E8E744F6DE6109A0C0F2000140F26312D4
:1031B000FEF7C2F844F6507044F6DE61C0F200003B
:1031C000C0F200014FF49772FEF7B6F878526574BA
:1031D00075726E20213D202820282028204261730E
:1031E00065547970655F74202920302029202900DA
:1031F0002DE9F04F85B00028049200F09D8099469B
:103200001546044619B9206C002840F0B980B9F180
:10321000020F03D1E06B012840F0A680019100F07D
:1032200083FA10B9002D40F09380FFF739FCA06BB2
:10323000B9F1020F59D0E16B884256D304F110075F
:10324000012002AE4FF0000B04AD00BF049900292D
:1032500066D0C00702D03046FFF7A3FDFFF746FC5B
:10326000FFF778FEFFF71CFC94F84400FF2808BF26
:1032700084F844B094F84500FF2808BF84F845B0AE
:10328000FFF734FC3046294600F064F900284AD1A3
:10329000FFF706FCD4F838A0D4F83C80FFF726FCF2
:1032A000C24515D104993846FFF78FFD2046FFF738
:1032B000C7F800F049FC80B94EF60450CEF2000089
:1032C0004FF080510160BFF34F8FBFF36F8F04E069
:1032D0002046FFF7B5F800F037FCFFF7E1FBA06BE5
:1032E000E16B88424FF00000B0D2019920464A4677
:1032F000FEF781FF54F8241F11B1204600F0AAFB0D
:1033000050B14EF60450CEF200004FF080510160F3
:10331000BFF34F8FBFF36F8FFFF7E8FB012008E08B
:10332000FFF7E4FB04E02046FFF78AF800F00CFC0E
:10333000002005B0BDE8F08F44F6507044F6DE6121
:10334000C0F20000C0F2000140F27D32FDF7F4FF50
:1033500044F6125044F6DE61C0F20000C0F20001F3
:1033600040F28232FDF7E8FF44F6655044F6DE6134
:10337000C0F20000C0F2000140F27F32FDF7DCFF36
:1033800044F6026044F6DE61C0F20000C0F20001C3
:1033900040F27E32FDF7D0FF2DE9F04F83B00028D8
:1033A000029100F0B2800446006C002840F0B98021
:1033B0000D4600F0B9F910B9002D40F0BE80FFF7BE
:1033C0006FFBA16BD1B1481EA063206810B9FFF755
:1033D0004BF9A06054F8100F70B1204600F03AFB92
:1033E00050B14EF60450CEF200004FF08051016013
:1033F000BFF34F8FBFF36F8F012480E004F12409E6
:103400004FF0000B01206E4602AF4FF0000800BFE6
:103410000299002972D0C00702D03046FFF7C1FCE4
:10342000FFF764FBFFF796FDFFF73AFB94F84400C3
:10343000FF2808BF84F844B094F84500FF2808BF6F
:1034400084F845B0FFF752FB3046394600F082F869
:1034500060B12046FEF7F4FF00F076FBFFF720FB9B
:10346000A56BFFF743FB7DBB35E000BFFFF718FB03
:10347000D4F838A0FFF73AFBBAF1000F05D0204688
:10348000FEF7DEFF00F060FB1EE0206838B9FFF7B2
:1034900007FBA06800F08EFA8046FFF727FB029931
:1034A0004846FFF792FC2046FEF7CAFF00F04CFBAF
:1034B00050B94EF60450CEF200004FF0805101603A
:1034C000BFF34F8FBFF36F8FFFF7EAFAA16B0020B6
:1034D00000299DD077E7B8F1000F09D0FFF7E0FA97
:1034E000D9F8000030B1206B0068C0F10F0102E094
:1034F000002406E00021A068FFF784FC0024FFF709
:10350000F5FA204603B0BDE8F08F44F6B96044F602
:10351000DE61C0F20000C0F2000140F22E62FDF751
:103520000BFF44F6C56044F6DE61C0F20000C0F255
:10353000000140F23262FDF7FFFE44F6125044F6FD
:10354000DE61C0F20000C0F2000140F23762FDF718
:10355000F3FE000070B568B30D46B9B30446FFF73B
:103560009FFA45F6BC3EC1F6FE7EDEF800302968C3
:103570004A1C16D045F6643CC1F6FE7CD4E9000234
:10358000DCF80060864201D093420CD29A1A914234
:1035900009D9881A2860DCF800002060DEF80000F5
:1035A0006060002402E0002001242860FFF79EFAFA
:1035B000204670BD45F2541045F2C601C0F200002D
:1035C000C0F2000140F62C52FDF7B6FE45F2C601EE
:1035D00003A0C0F2000140F62D52FDF7ADFE00BF82
:1035E00070785469636B73546F576169740000009D
:1035F0002DE9F04F83B0074690009846154689465E
:10360000FEF758FFE0B106467820FEF753FFA0B161
:10361000DDE90CBA78210446FCF729FF3846494613
:103620002A4643462663CDE900BA0294FEF78CFE93
:103630002046FEF74BFD012004E03046FFF77CFA00
:103640004FF0FF3003B0BDE8F08F00002DE9F047E8
:1036500086B0DDF83C90B9F1000F27D0109E76B30C
:103660000446782004900498782831D104980F46B5
:10367000DDF838A03046782198461546FCF7F7FE6D
:10368000022086F8750005A8C6F83090CDE900A0A4
:10369000204639462A4643460296FEF755FE3046F6
:1036A000FEF714FD059806B0BDE8F08745F2C601A7
:1036B00018A0C0F2000140F24322FDF73DFE45F2A2
:1036C000C6010FA0C0F200014FF41172FDF734FEE5
:1036D00045F2C60103A0C0F200014FF41372FDF7DA
:1036E0002BFE00BF7853697A65203D3D2073697ACF
:1036F000656F6628205443425F7420290000000053
:1037000070785461736B42756666657220213D2046
:1037100030000000707578537461636B42756666A3
:10372000657220213D20300045F68830C1F6FE70DC
:10373000006848B145F6A800C1F6FE700068B0FA0E
:1037400080F0400940007047012070472DE9F04F9C
:1037500081B045F6A800C1F6FE70006840B145F69C
:103760007030C1F6FE700168013101600020B2E0E6
:1037700045F6BC30C1F6FE70016845F6603211F1C5
:10378000010BC1F6FE72C0F800B021D340F26070A8
:10379000C1F6FE7001680968002940F09F8040F280
:1037A0006873C1F6FE7301681F680760196045F60B
:1037B0006431C1F6FE710B6801330B600168096862
:1037C00019B10068C068006801E04FF0FF30106078
:1037D000106840F25C7E40F26C788345C1F6FE7E54
:1037E000C1F6FE7801D2002063E040F2607AC1F6B3
:1037F000FE7ADAF800000068002856D045F6B009D5
:10380000C1F6FE79002000BFDAF80040E468E668FF
:10381000374657F8044FA34542D37469D6E90215D9
:1038200062688D60BA42696008BF656021680139CD
:103830002160B46A84B1D4F804C006F11801D6E955
:1038400007258C454FF0000195606A6008BF6560F0
:10385000B162216801392160F46AD9F800108C4204
:1038600004EB840188BFC9F8004008EB8102556869
:103870007261AB68C6E902535F60AF6058F82120FF
:10388000013248F82120DEF80010C96ADAF8002079
:103890008C4288BF012011680029B5D14FF0FF3458
:1038A00045F66032C1F6FE7202E04FF0FF340020B0
:1038B0001460DEF80010C96A01EB810158F821108C
:1038C000012945F6C031C1F6FE7188BF01200968A3
:1038D000002918BF012001B0BDE8F08F44F65870F0
:1038E00045F2C601C0F20000C0F2000140F6F42229
:1038F000FDF722FDB0B5D0B3044640F25C70C1F6CE
:10390000FE700068A04234D1A06DD8B30138A06524
:103910004FF0000018BFB0BDE16A626D914225D042
:10392000251D2846FFF765F8606D40F26C7CC0F1FC
:103930000F01A16145F6B001E062C1F6FE710A68AF
:10394000C1F6FE7C904288BF086000EB80000CEB63
:103950008002536862619968C4E902314D609D60DC
:103960005CF8201001314CF820100120B0BD00207F
:10397000B0BD45F2C60109A0C0F2000141F28C02BF
:10398000FDF7DAFC45F2251045F2C601C0F2000051
:10399000C0F2000141F28D02FDF7CEFC7078544375
:1039A00042203D3D20707843757272656E745443B9
:1039B0004200000010B3F0B581B040F25C77C1F670
:1039C000FE770446C06A3968C96A884218D2A1697C
:1039D000002904D43968C96AC1F10F01A16140F21C
:1039E0006C76616900EB8000C1F6FE7606EB800024
:1039F00081420DD03868C06AE06228E0002070473C
:103A0000616D3868C26A0020914238BF01201FE012
:103A1000251D2846FEF7EDFF386845F6B001C06A5F
:103A2000C1F6FE71E0620A68904288BF086000EB50
:103A3000800006EB80014A6861619368C4E9022353
:103A40005D60956056F82010013146F82010012085
:103A500001B0F0BDB0B5C068C068002867D0826A08
:103A6000D0E90713D2F804E000F1180C8B6059601C
:103A70000021E64508BF5360816211680139116079
:103A800045F6A801C1F6FE71096889B145F67431A1
:103A9000C1F6FE710A684B6801329D688162C0E917
:103AA0000735C5F804C0C3F808C00A60C26A2DE033
:103AB0004269D0E90213D2F804E000F1040C8B60F3
:103AC000E645596008BF5360116845F6B0030139F7
:103AD0001160C1F6FE73C26A196840F26C7E8A42B8
:103AE00002EB8201C1F6FE7E88BF1A600EEB8103F5
:103AF0005C684361A568C0E90245C5F804C0C4F824
:103B000008C05EF8210001304EF8210040F25C70E0
:103B1000C1F6FE700068C06A824291BF002045F67F
:103B2000C031C1F6FE71012088BF0860B0BD45F20A
:103B3000610045F2C601C0F20000C0F2000140F68B
:103B4000B142FDF7F9FB00002DE9F04F81B045F6D9
:103B5000A804C1F6FE742068002800F0A880FEF7D3
:103B60009FFF206801382060206830B10024FEF7F4
:103B7000BDFF204601B0BDE8F08F45F6A000C1F6BC
:103B8000FE7000680028F1D045F6743BC1F6FE7B5C
:103B9000DBF8001045F6C0380029C1F6FE7863D086
:103BA00045F6B00A40F26C7340F25C794FF0000EBB
:103BB000C1F6FE7AC1F6FE73C1F6FE794FF0010C34
:103BC000DBF80C10CD68AF6AD5E907267C6805F1F3
:103BD00018018C429660726008BF7E60C5F828E0CC
:103BE00039682E1D013939606F69D5E902417A685B
:103BF000A160B2424C6008BF796039680139396010
:103C0000EF6ADAF800108F4207EB870188BFCAF825
:103C1000007003EB810254686A61A068C5E9024044
:103C20004660A66053F82100013043F82100D9F81E
:103C30000000C06A874288BFC8F800C0DBF80000F7
:103C40000028BDD140F26070C1F6FE7001680968BD
:103C500019B10068C068006801E04FF0FF3045F618
:103C60006031C1F6FE71086045F67034C1F6FE742D
:103C7000256855B1012600BFFFF768FD08B1C8F8F7
:103C80000060013DF8D100202060D8F80000002835
:103C90003FF46CAF4EF60450CEF200004FF080516E
:103CA0000160BFF34F8F0124BFF36F8F5FE745F2D1
:103CB000700045F2C601C0F20000C0F2000140F6FB
:103CC0009302FDF739FB00000FB4054B10B503A9B3
:103CD000044A029800F0FEF810BC5DF814FB0000E6
:103CE000311F00000000FE1F0FB47CB50C0009ADB1
:103CF00001D0611E00E00021CDE90001064B6A46BB
:103D00002946089800F0E6F8002C02D0009A00211D
:103D100011707CBC5DF814FB034600007CB50C0000
:103D20001D461646014601D0601E00E00020CDE988
:103D30000010064B6A462946304600F0CBF8002CAE
:103D400002D0009A002111707CBD000003460000E3
:103D50002DE9FF5F82B00021DDE90430020DDDF8BE
:103D600040B0034318D044F61050A2F2FF32424351
:103D70001514119801281FD0A5EB0B00401C5FEA19
:103D8000000A4FF000064E4FDFF83891B04650461B
:103D900015D5CAF1000413E0119801244AA30128A3
:103DA00001D16FEA0B010298119AC0E90031C0E914
:103DB000024206B0BDE8F09FCBF10000DFE7044609
:103DC0000021404A491842EB0450CDE9001012E0AE
:103DD000E00707D032463B4640464946FCF768FCC0
:103DE0008046894632463B4610461946FCF760FC41
:103DF00006460F466410002CEAD1DDE90401DDE936
:103E00000023BAF1000F06DAFCF752FC42464B469B
:103E1000FCF74EFC05E0FCF7BDFC42464B46FCF7C8
:103E2000B9FC04460E460022284BFCF73BFD03D8A4
:103E30004FF0FF30014607E00022254B2046314677
:103E4000FCF78FFBFCF715FD102409E0002C0ADBC2
:103E50000A220023FCF754FB039B30321A55641EE0
:103E600050EA0102F2D1641C039AC4F11103144414
:103E7000119A012A03D0012208430DD10AE0084318
:103E800004D000204FF0110B119072E7A3EB0B054B
:103E90006D1E0DE05B4504DD4FF0000205F10105EC
:103EA00004E003DA4FF00002A5F10105002AECD08E
:103EB00002981199C0E90231C0E9004579E7000094
:103EC000000014400000F03F300000000000F0430C
:103ED0000000E03F2DE9FF4F95B09B46894606461E
:103EE00000250FE2252877D100242746F84A012132
:103EF000059400E0044316F8013F203B01FA03F06B
:103F00001042F7D130782A2811D06FF02F03307883
:103F1000A0F13002092A16D8059A44F0020402EBF7
:103F2000820203EB42021044761C0590EFE759F839
:103F3000042B0592002A03DA504244F40054059001
:103F400044F00204761C30782E2816D116F8010FA2
:103F500044F004042A280DD06FF02F023078A0F12D
:103F60003003092B09D807EB870302EB4303C7187B
:103F7000761CF3E759F8047B761C30786C280FD058
:103F800006DC4C2817D068280DD06A2814D104E02C
:103F9000742810D07A280FD10DE044F400140AE000
:103FA00044F4801401E044F440147278824202D157
:103FB00004F58014761C761C307866280BD013DC50
:103FC000582877D009DC002875D04528F6D0462837
:103FD000F4D047281AD19DE118E0632835D0642831
:103FE00079D0652812D195E1702873D008DC672854
:103FF000F1D069286FD06E280DD06F2806D1B5E0BA
:1040000073282CD0752875D0782874D05A46179903
:1040100090476D1C75E1C4F30250022809D00328B3
:104020000DD0D9F8001004280DD00D6009F1040955
:1040300067E1D9F80010EA17C1E90052F6E7D9F8AC
:1040400000100D80F2E70D70F0E719F8041B8DF8F1
:10405000001000208DF80100EA46012003E059F825
:1040600004AB4FF0FF3061074FF0000102D40DE0C8
:1040700008F101018846B9420FDA8045F8DB1AF8E9
:1040800008100029F4D108E008F1010188468142B6
:10409000FADB1AF808100029F6D105985B46A0EB68
:1040A000080721463846179A00F094FA284400EB96
:1040B000080507E04DE029E10DE01AF8010B5A462A
:1040C00017999047B8F10108F7D25B462146384668
:1040D000179A13E142E00A220092C4F302524FF011
:1040E000000A022A08D059F804CB032A4FEAEC71DF
:1040F0000AD00DE029E02AE009F1070121F00702CA
:10410000F2E802C1914609E00FFA8CFC4FEAEC712B
:10411000042A03D14FFA8CFC4FEAEC71002907DA2C
:104120000A460021DCF1000C61EB02012D2202E0C5
:10413000220504D52B228DF80420012203E0E2079A
:1041400001D02022F7E7904659E00A2102E0102230
:104150000DE010214FF0000A00910BE010224FF00B
:10416000000A44F004040827009203E008224FF0FC
:10417000000A0092C4F30252022A05D059F804CB77
:104180000021032A08D009E009F1070121F0070204
:10419000F2E802C1914605E01FFA8CFC042A01D125
:1041A0000CF0FF0C4FF00008220728D5702806D02D
:1041B000009B83F0100353EA0A0305D00EE040226F
:1041C0008DF80420012208E05CEA010206D03022CA
:1041D0008DF804208DF8050002229046009B83F0A4
:1041E000080353EA0A030AD15CEA010201D162071B
:1041F00005D530228DF804204FF001087F1E582885
:1042000004D034A003900EA802900DE036A0F9E788
:1042100053466046009AFCF773F984460398825C23
:104220000298401E029002705CEA0100F0D10298F0
:1042300006A9081A00F1200A600702D524F4803488
:1042400000E00127574502DDA7EB0A0000E000204F
:1042500000EB0A01009005984144401A0590E003E4
:1042600006D45B462146179A059800F0B3F9054439
:10427000002706E001A85A46C05D179990476D1CBB
:104280007F1C4745F6DBE0030CD55B462146179AB9
:10429000059800F09FF9054404E030205A4617992C
:1042A00090476D1C0099481E00900029F5DC08E03D
:1042B000029802995A460078491C02911799904732
:1042C0006D1CBAF10001AAF1010AF1DC65E1000000
:1042D00009280100303132333435363738396162DC
:1042E00063646566000000003031323334353637A0
:1042F00038394142434445460000000000F058F977
:104300000544761C307800287FF4ECAD19B02846BF
:10431000BDE8F08F620700D4062709F1070222F0FA
:10432000070CFCE80223E14603F000485FEA080CB2
:1043300002D00FF2702C0DE05FEA045C02D50FF2A0
:10434000682C07E05FEAC47C02D00FF2602C01E029
:10435000AFF2700C4FF0FF3823F00043CDF850C09F
:1043600065280CD006DC452809D046281DD04728F2
:104370003DD13DE0662818D067287ED138E0002185
:10438000112F01DB112000E0781CCDE9000106A906
:104390000EA8FFF7DDFCDDE90F010E9A0391002165
:1043A000009207F1010A04914DE04FF000400097A0
:1043B000CDE9011006A90EA8FFF7CAFCDDE90F023E
:1043C00003920E9B11990022DDF80CA00093049239
:1043D00011B9791C00EB010AB7EB0A0004D4C0F153
:1043E000FF3007F1010A0490AAEB0700019044E0B6
:1043F000012F00DA01270021112F01DD112000E03B
:104400003846CDE9000106A90EA8FFF7A1FCDDE9B9
:104410000F010E9A0391002104910092BA462107E0
:104420000CD40399514500DA8A46BAF1010F05DD33
:10443000009AAAF10101515C302908D0B84202DA91
:1044400010F1040F06DA0121CDE9011015E0AAF1FF
:104450000101E9E7002805DC049901440491AAEB75
:10446000000102E0411C514500DD8A460499401AD2
:10447000401C01904FF000400290200704D40198A6
:10448000504501DBCDF8048000208DF84F000298E4
:104490000DF14F07B0F1004F25D02B200E90029860
:1044A0004FF0020800280CDA404202902D200E90B6
:1044B00007E00A210298FCF70DF83031029007F866
:1044C000011DB8F10001A8F10108F2DC02980028F2
:1044D000EFD1791E0E980870307800F0200040F07F
:1044E000450007F8020D12A8C01B00F10708149838
:1044F000007800B1012000EB0A01019801EBE071A6
:1045000005984144401A401E0590E00306D45B46DE
:104510002146179A059800F05DF805441498007834
:1045200018B15A46179990476D1CE00324D55B4695
:104530002146179A059800F04DF805441CE00498B0
:10454000002807DBDDE90301884203DD0098405CB9
:10455000179901E0179930205A469047049805F1C1
:104560000105401C04900198401E019004D12E20AA
:104570005A46179990476D1CBAF10001AAF1010A39
:10458000DDDC05E017F8010B5A46179990476D1CC2
:10459000B8F10001A8F10108F4DC5B462146179A46
:1045A0000598ABE62D0000002B0000002000000065
:1045B0002DE9F041044600251E461746880404D420
:1045C00005E039462020B0476D1C641EF9D5284609
:1045D000BDE8F0812DE9F041044600251E469046D5
:1045E000C80301D5302700E02027880404D505E062
:1045F00041463846B0476D1C641EF9D52846BDE8D3
:10460000F0814A68002A06D00A68531C0B601070BB
:104610004868401E4860704700000000524B000090
:10462000364B0000444B0000594B00003D4B00004E
:104630004B4B0000010002000800100006000000C3
:1046400048460000000000000000010008010000D2
:104650000000010509010000000001050A01000039
:104660000500000009020000050000000A02000029
:104670000000010000030000AA010000AB010000DF
:10468000AC010000AD0100000000000000000000CF
:10469000000000000000000000000000000000001A
:1046A000000000000000000000000000000000000A
:1046B00000000000000000000000000000000000FA
:1046C00000000000000000000000000000000000EA
:1046D00000000000000000000000000000000000DA
:1046E00000000000000000000000000000000000CA
:1046F00000000000000000000000000000000000BA
:1047000000000000000000000000000000000000A9
:104710000000000000000000000000000000000099
:104720000000000000000000000000000000000089
:104730000000000000000000000000000000000079
:104740000000000000000000000000000000000069
:104750000000000000000000000000000000000059
:104760000000000000000000000000000000000049
:104770000000000000000000000000000000000039
:104780000000000000000000000000000000000029
:104790000000000000000000000000000000000019
:1047A0000000000000000000000000000000000009
:1047B00000000000000000000000000000000000F9
:1047C00000000000000000000000000000000000E9
:1047D00000000000000000000000000000000000D9
:1047E00000000000000000000000000000000000C9
:1047F00000000000000000009401FE1F3C46000085
:10480000044800006B0C0000610C0000F50D000076
:10481000810C0000330D00005B0D0000AB0D0000AB
:10482000CD0D0000010E00002D0E0000450E000011
:10483000650E00007B0E0000090000000200000071
:1048400000000000000000000C000000000000005C
:104850000C000000010000000C000000020000003D
:104860000C00000003000000000000000000000039
:1048700043170000000000007C480000000000001A
:1048800001000000000000000400FE1F0F000000F7
:10489000FFFF00000000000000000000000000001A
:1048A000FFFF000000000000F9480000FF48000082
:1048B0000849000002490000FC48000005490000CA
:1048C0002000280074616720213D202828766F6928
:1048D00064202A2930290028257329206861732043
:1048E000617373657274206661696C6564206174BC
:1048F0002025733A256C642E00412F00442F00457B
:104900002F00492F00562F00572F00322E322E39FC
:1049100039006C6576656C203C3D20454C4F475F07
:104920004C564C5F564552424F534500656C6F677D
:104930002E656E61626C65645F666D745F7365742D
:104940005B6C766C5D202620454C4F475F464D548E
:104950005F54414700656C6F672E656E61626C65E0
:10496000645F666D745F7365745B454C4F475F4C65
:10497000564C5F564552424F53455D202620454CCC
:104980004F475F464D545F4C564C00656C6F672E29
:10499000656E61626C65645F666D745F7365745BA0
:1049A000454C4F475F4C564C5F44454255475D2050
:1049B0002620454C4F475F464D545F4C564C006592
:1049C0006C6F672E656E61626C65645F666D745FA7
:1049D0007365745B454C4F475F4C564C5F57415273
:1049E0004E5D202620454C4F475F464D545F4C5648
:1049F0004C00656C6F672E656E61626C65645F6606
:104A00006D745F7365745B454C4F475F4C564C5FEC
:104A1000494E464F5D202620454C4F475F464D543A
:104A20005F4C564C00656C6F672E656E61626C65FD
:104A3000645F666D745F7365745B454C4F475F4C94
:104A4000564C5F4552524F525D202620454C4F47F1
:104A50005F464D545F4C564C00656C6F672E656E1B
:104A600061626C65645F666D745F7365745B454C11
:104A70004F475F4C564C5F4153534552545D20267F
:104A800020454C4F475F464D545F4C564C006C766A
:104A90006C203C20454C4F475F4C564C5F544F5464
:104AA000414C5F4E554D007372632F656173796C95
:104AB0006F676765722F7372632F656C6F672E6304
:104AC000006765745F666D745F656E61626C6564D6
:104AD00000656C6F675F66696E645F74616700652F
:104AE0006C6F6700656C6F675F66696E645F6C769C
:104AF0006C00656C6F675F6765745F66696C746591
:104B0000725F7461675F6C766C00656C6F675F7372
:104B100065745F66696C7465725F7461675F6C76FB
:104B20006C00656C6F675F7365745F66696C746554
:104B3000725F6C766C0033313B32326D0033323B46
:104B400032326D0033333B32326D0033343B32321C
:104B50006D0033353B32326D0033363B32326D00FF
:104B60007461675F6C656E00656C6F675F73657419
:104B70005F66696C74657200656C6F675F736574FE
:104B80005F666D7400656C6F675F6F7574707574C8
:104B9000007372632F656173796C6F676765722F3D
:104BA0007372632F656C6F675F7574696C732E63C6
:104BB00000737263006C696E6500656C6F675F639C
:104BC00070796C6E0064737400656C6F675F6D65FF
:104BD0006D63707900656C6F675F73747263707971
:104BE0000028202820282070784C696E6B2D3E7894
:104BF000426C6F636B53697A652029202620282038
:104C00002820282073697A655F74202920312029A3
:104C1000203C3C202820282073697A656F66282074
:104C200073697A655F742029202A20282028207340
:104C3000697A655F742029203820292029202D20B9
:104C40003120292029202920213D20302029202100
:104C50003D203000443A2F4465736B746F702F4DC4
:104C600043552F52656E657361732F576F726B7367
:104C7000706163655F4B65696C2F30305F54656DA3
:104C8000706C6174655F52544F532F72612F61775E
:104C9000732F4672656552544F532F4672656552A5
:104CA000544F532F536F757263652F706F72746119
:104CB000626C652F4D656D4D616E672F6865617023
:104CC0005F342E6300212820282070785175657587
:104CD000652D3E706348656164203D3D203020298C
:104CE000202626202820707851756575652D3E7523
:104CF0002E7853656D6170686F72652E784D75748E
:104D00006578486F6C64657220213D203020292031
:104D100029002128202820785461736B476574533B
:104D200063686564756C65725374617465282920C5
:104D30003D3D202820282042617365547970655FCD
:104D40007420292030202920292026262028207878
:104D50005469636B73546F5761697420213D20302F
:104D60002029202900212820282078436F7079509D
:104D70006F736974696F6E203D3D202820282042A2
:104D8000617365547970655F742029203220292071
:104D900029202626202820707851756575652D3EBE
:104DA00075784C656E67746820213D20312029207C
:104DB0002900212820282028207076427566666503
:104DC000722029203D3D2030202920262620282021
:104DD00028207078517565756520292D3E757849B4
:104DE00074656D53697A6520213D20282055426104
:104DF0007365547970655F7420292030552029200F
:104E00002900212820282070764974656D546F513F
:104E100075657565203D3D203020292026262028F7
:104E200020707851756575652D3E75784974656D8E
:104E300053697A6520213D202820554261736554CD
:104E40007970655F742029203055202920290021A0
:104E5000282028207076427566666572203D3D20C8
:104E60003020292026262028207078517565756508
:104E70002D3E75784974656D53697A6520213D2012
:104E800028205542617365547970655F742029202C
:104E90003055202920290028206354784C6F636BFB
:104EA000202920213D2028202820696E74385F7435
:104EB000202920313237202900282070785175654B
:104EC0007565202900707851756575652D3E75787A
:104ED0004974656D53697A65203D3D203000443A40
:104EE0002F4465736B746F702F4D43552F52656E51
:104EF000657361732F576F726B73706163655F4B7E
:104F000065696C2F30305F54656D706C6174655FDE
:104F100052544F532F72612F6177732F467265651C
:104F200052544F532F4672656552544F532F536F4F
:104F3000757263652F71756575652E6300784861BC
:104F40006E646C650070784E6577517565756500A7
:104F50007078517565756500282028202820282044
:104F6000707844656C617965645461736B4C6973E6
:104F70007420292D3E75784E756D6265724F6649B5
:104F800074656D73203D3D20282055426173655442
:104F90007970655F74202920302029203F20282047
:104FA000282042617365547970655F74202920312F
:104FB0002029203A202820282042617365547970E6
:104FC000655F742029203020292029202900757848
:104FD000496E646578546F436C656172203C20288B
:104FE0003129007578496E646578546F576169742A
:104FF000203C20283129007578496E646578546F0B
:105000004E6F74696679203C2028312900785469F4
:10501000636B436F756E74203D3D20282054696397
:105020006B547970655F7420292030002820282077
:1050300026282070785443422D3E784576656E745C
:105040004C6973744974656D202920292D3E707850
:10505000436F6E7461696E65722029203D3D20307A
:10506000007078556E626C6F636B656454434200E8
:1050700075785363686564756C6572537573706594
:105080006E64656420213D2028205542617365547B
:105090007970655F742029203055007578536368F6
:1050A0006564756C657253757370656E64656420B4
:1050B0003D3D2028205542617365547970655F74C9
:1050C000202920305500443A2F4465736B746F706B
:1050D0002F4D43552F52656E657361732F576F7255
:1050E0006B73706163655F4B65696C2F30305F5423
:1050F000656D706C6174655F52544F532F72612FF0
:105100006177732F4672656552544F532F4672650F
:105110006552544F532F536F757263652F746173CB
:105120006B732E630070785443422D3E75784D7535
:10513000746578657348656C6400785461736B546A
:105140006F526573756D650070784576656E744C49
:1051500069737400707854696D654F757400785484
:1051600061736B546F4E6F746966790028282853F9
:1051700043425F54797065202A29202828307845D9
:1051800030303045303030554C29202B20307830AD
:10519000443030554C2920292D3E49435352202676
:1051A00020283078314646554C202929203D3D2085
:1051B0003000443A2F4465736B746F702F4D435524
:1051C0002F52656E657361732F576F726B737061C9
:1051D00063655F4B65696C2F30305F54656D706C33
:1051E0006174655F52544F532F72612F6673702F35
:1051F0007372632F726D5F6672656572746F735F31
:10520000706F72742F706F72742E63000E00000046
:1052100000000505352E352E30004275696C74206E
:10522000776974682052656E657361732041647696
:10523000616E63656420466C657869626C652053B5
:105240006F667477617265205061636B616765207A
:1052500076657273696F6E20352E352E3000000032
:085260000000000040000D00F9
:020000040100F9
:10A15000FFFFFFFFFFFFFFFFFFFFFFFFFFFFFFFF0F
:04000005000011F1F5
:00000001FF
